{
  "contractName": "Loan",
  "abi": [
    {
      "inputs": [],
      "payable": false,
      "stateMutability": "nonpayable",
      "type": "constructor"
    },
    {
      "anonymous": false,
      "inputs": [
        {
          "indexed": false,
          "internalType": "int256",
          "name": "_status",
          "type": "int256"
        }
      ],
      "name": "LoanStatus",
      "type": "event"
    },
    {
      "constant": true,
      "inputs": [
        {
          "internalType": "address",
          "name": "",
          "type": "address"
        }
      ],
      "name": "balances",
      "outputs": [
        {
          "internalType": "uint256",
          "name": "",
          "type": "uint256"
        }
      ],
      "payable": false,
      "stateMutability": "view",
      "type": "function"
    },
    {
      "constant": false,
      "inputs": [
        {
          "internalType": "address",
          "name": "_receiver",
          "type": "address"
        },
        {
          "internalType": "uint256",
          "name": "_amount",
          "type": "uint256"
        }
      ],
      "name": "deposit",
      "outputs": [
        {
          "internalType": "bool",
          "name": "",
          "type": "bool"
        }
      ],
      "payable": false,
      "stateMutability": "nonpayable",
      "type": "function"
    },
    {
      "constant": true,
      "inputs": [
        {
          "internalType": "address",
          "name": "_account",
          "type": "address"
        }
      ],
      "name": "getBalance",
      "outputs": [
        {
          "internalType": "uint256",
          "name": "",
          "type": "uint256"
        }
      ],
      "payable": false,
      "stateMutability": "view",
      "type": "function"
    },
    {
      "constant": false,
      "inputs": [],
      "name": "isLoanCompleted",
      "outputs": [
        {
          "internalType": "bool",
          "name": "",
          "type": "bool"
        }
      ],
      "payable": false,
      "stateMutability": "nonpayable",
      "type": "function"
    },
    {
      "constant": false,
      "inputs": [
        {
          "internalType": "address",
          "name": "_bank",
          "type": "address"
        },
        {
          "internalType": "uint32",
          "name": "_loanAmount",
          "type": "uint32"
        },
        {
          "internalType": "uint32",
          "name": "_interest",
          "type": "uint32"
        },
        {
          "internalType": "uint32",
          "name": "_year",
          "type": "uint32"
        }
      ],
      "name": "submitLoan",
      "outputs": [],
      "payable": false,
      "stateMutability": "nonpayable",
      "type": "function"
    },
    {
      "constant": true,
      "inputs": [],
      "name": "getLoanData",
      "outputs": [
        {
          "internalType": "address",
          "name": "_bank",
          "type": "address"
        },
        {
          "internalType": "address",
          "name": "_customer",
          "type": "address"
        },
        {
          "internalType": "uint32",
          "name": "_loanAmount",
          "type": "uint32"
        },
        {
          "internalType": "uint32",
          "name": "_interest",
          "type": "uint32"
        },
        {
          "internalType": "uint32",
          "name": "_year",
          "type": "uint32"
        },
        {
          "internalType": "uint32",
          "name": "_monthlyPayment",
          "type": "uint32"
        },
        {
          "internalType": "int256",
          "name": "_status",
          "type": "int256"
        }
      ],
      "payable": false,
      "stateMutability": "view",
      "type": "function"
    },
    {
      "constant": false,
      "inputs": [
        {
          "internalType": "int256",
          "name": "_status",
          "type": "int256"
        }
      ],
      "name": "approveRejectLoan",
      "outputs": [],
      "payable": false,
      "stateMutability": "nonpayable",
      "type": "function"
    }
  ],
  "bytecode": "0x608060405234801561001057600080fd5b50336000806101000a81548173ffffffffffffffffffffffffffffffffffffffff021916908373ffffffffffffffffffffffffffffffffffffffff16021790555060006001600301819055506305f5e100600560003373ffffffffffffffffffffffffffffffffffffffff1673ffffffffffffffffffffffffffffffffffffffff16815260200190815260200160002081905550610c59806100b36000396000f3fe608060405234801561001057600080fd5b506004361061007d5760003560e01c80637d4355b51161005b5780637d4355b5146101b457806393840708146101d6578063a3f14e9614610204578063f8b2cb4f146102d45761007d565b806327e235e31461008257806347e7ef24146100da5780637cffde3c14610140575b600080fd5b6100c46004803603602081101561009857600080fd5b81019080803573ffffffffffffffffffffffffffffffffffffffff16906020019092919050505061032c565b6040518082815260200191505060405180910390f35b610126600480360360408110156100f057600080fd5b81019080803573ffffffffffffffffffffffffffffffffffffffff16906020019092919080359060200190929190505050610344565b604051808215151515815260200191505060405180910390f35b6101b26004803603608081101561015657600080fd5b81019080803573ffffffffffffffffffffffffffffffffffffffff169060200190929190803563ffffffff169060200190929190803563ffffffff169060200190929190803563ffffffff169060200190929190505050610661565b005b6101bc61082b565b604051808215151515815260200191505060405180910390f35b610202600480360360208110156101ec57600080fd5b8101908080359060200190929190505050610921565b005b61020c610a30565b604051808873ffffffffffffffffffffffffffffffffffffffff1673ffffffffffffffffffffffffffffffffffffffff1681526020018773ffffffffffffffffffffffffffffffffffffffff1673ffffffffffffffffffffffffffffffffffffffff1681526020018663ffffffff1663ffffffff1681526020018563ffffffff1663ffffffff1681526020018463ffffffff1663ffffffff1681526020018363ffffffff1663ffffffff16815260200182815260200197505050505050505060405180910390f35b610316600480360360208110156102ea57600080fd5b81019080803573ffffffffffffffffffffffffffffffffffffffff169060200190929190505050610af8565b6040518082815260200191505060405180910390f35b60056020528060005260406000206000915090505481565b60008060009054906101000a900473ffffffffffffffffffffffffffffffffffffffff1673ffffffffffffffffffffffffffffffffffffffff163373ffffffffffffffffffffffffffffffffffffffff1614610408576040517f08c379a000000000000000000000000000000000000000000000000000000000815260040180806020018281038252601c8152602001807f43616c6c6572206973206e6f74206c6f616e206170706c6963616e740000000081525060200191505060405180910390fd5b81600560003373ffffffffffffffffffffffffffffffffffffffff1673ffffffffffffffffffffffffffffffffffffffff1681526020019081526020016000205410156104bd576040517f08c379a00000000000000000000000000000000000000000000000000000000081526004018080602001828103825260128152602001807f4e6f7420656e6f7567682062616c616e6365000000000000000000000000000081525060200191505060405180910390fd5b60046001600301541415610539576040517f08c379a00000000000000000000000000000000000000000000000000000000081526004018080602001828103825260188152602001807f4c6f616e20697320616c72656164792066696e6973686564000000000000000081525060200191505060405180910390fd5b6002600160030154146105b4576040517f08c379a00000000000000000000000000000000000000000000000000000000081526004018080602001828103825260148152602001807f4c6f616e206973206e6f7420617070726f76656400000000000000000000000081525060200191505060405180910390fd5b81600560003373ffffffffffffffffffffffffffffffffffffffff1673ffffffffffffffffffffffffffffffffffffffff1681526020019081526020016000206000828254039250508190555081600560008573ffffffffffffffffffffffffffffffffffffffff1673ffffffffffffffffffffffffffffffffffffffff1681526020019081526020016000206000828254019250508190555061065661082b565b506001905092915050565b6000809054906101000a900473ffffffffffffffffffffffffffffffffffffffff1673ffffffffffffffffffffffffffffffffffffffff163373ffffffffffffffffffffffffffffffffffffffff1614610723576040517f08c379a000000000000000000000000000000000000000000000000000000000815260040180806020018281038252601c8152602001807f43616c6c6572206973206e6f74206c6f616e206170706c6963616e740000000081525060200191505060405180910390fd5b83600160000160006101000a81548173ffffffffffffffffffffffffffffffffffffffff021916908373ffffffffffffffffffffffffffffffffffffffff160217905550336001800160006101000a81548173ffffffffffffffffffffffffffffffffffffffff021916908373ffffffffffffffffffffffffffffffffffffffff160217905550826001800160146101000a81548163ffffffff021916908363ffffffff160217905550816001800160186101000a81548163ffffffff021916908363ffffffff1602179055508060018001601c6101000a81548163ffffffff021916908363ffffffff16021790555060018060030181905550610825610b41565b50505050565b600060018001601c9054906101000a900463ffffffff16600c600160020160009054906101000a900463ffffffff16020263ffffffff1660056000600160000160009054906101000a900473ffffffffffffffffffffffffffffffffffffffff1673ffffffffffffffffffffffffffffffffffffffff1673ffffffffffffffffffffffffffffffffffffffff1681526020019081526020016000205414156109195760046001600301819055507f9199c2204168edea815389607e935fbabac15bd002ff8a7db78fe8056075afb160046040518082815260200191505060405180910390a16001905061091e565b600090505b90565b600160000160009054906101000a900473ffffffffffffffffffffffffffffffffffffffff1673ffffffffffffffffffffffffffffffffffffffff163373ffffffffffffffffffffffffffffffffffffffff16146109e7576040517f08c379a00000000000000000000000000000000000000000000000000000000081526004018080602001828103825260128152602001807f43616c6c6572206973206e6f742062616e6b000000000000000000000000000081525060200191505060405180910390fd5b806001600301819055507f9199c2204168edea815389607e935fbabac15bd002ff8a7db78fe8056075afb16001600301546040518082815260200191505060405180910390a150565b6000806000806000806000600160000160009054906101000a900473ffffffffffffffffffffffffffffffffffffffff1696506001800160009054906101000a900473ffffffffffffffffffffffffffffffffffffffff1695506001800160149054906101000a900463ffffffff1694506001800160189054906101000a900463ffffffff16935060018001601c9054906101000a900463ffffffff169250600160020160009054906101000a900463ffffffff169150600160030154905090919293949596565b6000600560008373ffffffffffffffffffffffffffffffffffffffff1673ffffffffffffffffffffffffffffffffffffffff168152602001908152602001600020549050919050565b6000606463ffffffff16600c63ffffffff166001800160189054906101000a900463ffffffff166001800160149054906101000a900463ffffffff160263ffffffff1681610b8b57fe5b0463ffffffff1681610b9957fe5b0490506000600c63ffffffff1660018001601c9054906101000a900463ffffffff1663ffffffff166001800160149054906101000a900463ffffffff1663ffffffff1681610be357fe5b0463ffffffff1681610bf157fe5b0490506000828201905080600160020160006101000a81548163ffffffff021916908363ffffffff16021790555050505056fea265627a7a72315820ddbb9e2e1f43c7ec73398ca84ec4583c0abaee289087a8d7b18d9a5c0412441a64736f6c63430005100032",
  "source": "pragma solidity ^0.5.0;\n\ncontract Loan{\n    \n    constructor() public\n    {\n        loanApplicant = msg.sender;\n        loan.status = STATUS_INITIATED;\n        balances[msg.sender] = 100000000;\n    }\n    \n    address loanApplicant;\n\n    uint32 constant months = 12;\n    uint32 constant decimals = 100;\n    \n    event LoanStatus (int _status);\n   \n    int constant STATUS_INITIATED = 0;\n    int constant STATUS_SUBMITTED = 1;\n    int constant STATUS_APPROVED  = 2;\n    int constant STATUS_REJECTED  = 3;\n    int constant STATUS_FINISHED  = 4;\n    \n    struct Loan {\n      address bank;\n      address customer;\n      uint32 loanAmount;\n      uint32 interest;\n      uint32 year;\n      uint32 monthlyPayment;\n      int   status;\n    }\n    \n    Loan loan;\n    \n    mapping (address => uint256) public balances;\n   \n    modifier bankOnly {\n        require(msg.sender == loan.bank, \"Caller is not bank\");\n        _;\n   }\n   \n   modifier loanApplicantOnly {\n        require(msg.sender == loanApplicant, \"Caller is not loan applicant\");\n        _;\n   }\n    \n   function deposit(address _receiver, uint _amount) public loanApplicantOnly returns(bool) {\n       require(balances[msg.sender] >= _amount, \"Not enough balance\");\n       require(loan.status != STATUS_FINISHED, \"Loan is already finished\");\n       require(loan.status == STATUS_APPROVED, \"Loan is not approved\");\n        balances[msg.sender] -= _amount;\n        balances[_receiver] += _amount;\n        isLoanCompleted();\n        return true;\n    }\n\n    function getBalance(address _account) public view returns(uint256){\n        return balances[_account];\n    }\n    \n    function isLoanCompleted() public returns (bool){\n        if(balances[loan.bank] == loan.monthlyPayment * months * loan.year){\n            loan.status = STATUS_FINISHED;\n            emit LoanStatus(STATUS_FINISHED);\n            return true;\n        }\n        return false;\n    }\n    \n    function calculateMontlyPayment() private {\n        uint32 _montlyInterest = loan.loanAmount * loan.interest / months / decimals;\n        uint32 _montlyLoan = loan.loanAmount / loan.year / months;\n        uint32 _montlyPayment = _montlyLoan + _montlyInterest;\n        loan.monthlyPayment = _montlyPayment;\n    }\n    \n    \n    function submitLoan (\n            address _bank,\n            uint32 _loanAmount,\n            uint32 _interest,\n            uint32 _year\n    ) public loanApplicantOnly{\n        loan.bank = _bank;\n        loan.customer = msg.sender;\n        loan.loanAmount = _loanAmount;\n        loan.interest = _interest;\n        loan.year = _year;\n        loan.status = STATUS_SUBMITTED;\n        calculateMontlyPayment();\n    }\n    \n    function getLoanData() public view returns (\n            address _bank,\n            address _customer,\n            uint32 _loanAmount,\n            uint32 _interest,\n            uint32 _year,\n            uint32 _monthlyPayment,\n            int   _status\n            )\n    {\n        _bank = loan.bank;\n        _customer = loan.customer;\n        _loanAmount = loan.loanAmount;\n        _interest = loan.interest;\n        _year = loan.year;\n        _monthlyPayment = loan.monthlyPayment;\n        _status = loan.status;\n    }\n    \n\n    function approveRejectLoan(int _status) public bankOnly {\n        loan.status = _status ;\n        emit LoanStatus(loan.status);\n    }\n}",
  "sourcePath": "/Users/ringaile/Documents/etherworkspace/angular/contracts/Loan.sol",
  "compiler": {
    "name": "solc",
    "version": "0.5.16+commit.9c3226ce.Emscripten.clang"
  },
  "schemaVersion": "3.3.3",
  "updatedAt": "2021-02-19T12:21:58.583Z",
  "devdoc": {
    "methods": {}
  },
  "userdoc": {
    "methods": {}
  }
}